:100000000C946D010C94AF050C9488050C9495012B
:100010000C9495010C9495010C9495010C94950108
:100020000C9495010C9495010C9495010C949501F8
:100030000C9495010C9495010C9495010C949501E8
:100040000C943E050C9495010C94FB030C94D50381
:100050000C9495010C9495010C9495010C949501C8
:100060000C94D6070C949501AED580A81FD3004000
:100070008D142002A1C8DA02817FD9F1DB40A4A649
:10008000AF000005072060000000000000005F00D6
:10009000000007000700147F147F14242A7F2A120F
:1000A00023130864623649562050000807030000F5
:1000B0001C2241000041221C002A1C7F1C2A080827
:1000C0003E0808008070300008080808080000603A
:1000D000600020100804023E5149453E00427F4026
:1000E0000072494949462141494D331814127F1085
:1000F00027454545393C4A494931412111090736CF
:1001000049494936464949291E000014000000406B
:100110003400000008142241141414141400412265
:10012000140802015909063E415D594E7C12111214
:100130007C7F494949363E414141227F4141413E10
:100140007F494949417F090909013E414151737F76
:100150000808087F00417F41002040413F017F089F
:100160001422417F404040407F021C027F7F0408F0
:10017000107F3E4141413E7F090909063E41512120
:100180005E7F09192946264949493203017F010347
:100190003F4040403F1F2040201F3F4038403F63CA
:1001A0001408146303047804036159494D43007F24
:1001B0004141410204081020004141417F040201F5
:1001C0000204404040404000030708002054547897
:1001D000407F284444383844444428384444287FE5
:1001E000385454541800087E090218A4A49C787F3F
:1001F0000804047800447D40002040403D007F100A
:1002000028440000417F40007C047804787C080486
:1002100004783844444438FC18242418182424183A
:10022000FC7C08040408485454542404043F442427
:100230003C4040207C1C2040201C3C4030403C4442
:10024000281028444C9090907C4464544C440008FE
:10025000364100000077000000413608000201022C
:1002600004023C2623263C68001980200000000080
:100270000800020100000304070000000000000065
:100280000000030C0F30333C3FC0C3CCCFF0F3FC75
:10029000FF00000000240027002A000000000025C5
:1002A0000028002B00000000002300260029000485
:1002B000040404040404040202020202020303030D
:1002C0000303030102040810204080010204081007
:1002D0002001020408102000531411241FBECFEF88
:1002E000D8E0DEBFCDBF11E0A0E0B1E0ECECF0E380
:1002F00002C005900D92AC3BB107D9F727E0ACEBFB
:10030000B1E001C01D92AC34B207E1F711E0CDE6D7
:10031000D1E004C02197FE010E945918CC36D107C4
:10032000C9F70E942F0C0C9464180C940000CF9213
:10033000DF92EF92FF920F931F93CF93DF936C01A5
:100340007A018B01C0E0D0E0CE15DF0589F0D8013D
:100350006D918D01D601ED91FC910190F081E02D20
:10036000C6010995892B11F47E0102C02196ECCFBC
:10037000C701DF91CF911F910F91FF90EF90DF9018
:10038000CF900895FC01538D448D252F30E0842FAC
:1003900090E0821B930B541710F0CF9608950197AD
:1003A0000895FC01918D828D981761F0828DDF0197
:1003B000A80FB11D5D968C91928D9F5F9F73928F58
:1003C00090E008958FEF9FEF0895FC01918D828D4D
:1003D000981731F0828DE80FF11D858D90E008951A
:1003E0008FEF9FEF0895FC01918D228D892F90E072
:1003F000805C9F4F821B91098F739927089584EF2A
:1004000095E00E94F30121E0892B09F420E0822F7E
:100410000895FC01848DDF01A80FB11DA35ABF4FC1
:100420002C91848D90E001968F739927848FA689F3
:10043000B7892C93A089B1898C9180648C93938D1A
:10044000848D981306C00288F389E02D80818F7D0A
:1004500080830895EF92FF920F931F93CF93DF93C2
:10046000EC0181E0888F9B8D8C8D981305C0E88905
:10047000F989808185FD24C0F62E0B8D10E00F5F79
:100480001F4F0F731127E02E8C8DE8120CC00FB692
:1004900007FCFACFE889F989808185FFF5CFCE0185
:1004A0000E940902F1CF8B8DFE01E80FF11DE35A86
:1004B000FF4FF0820B8FEA89FB898081806207C041
:1004C000EE89FF896083E889F9898081806480836F
:1004D00081E090E0DF91CF911F910F91FF90EF901D
:1004E0000895CF93DF93EC01888D8823C9F0EA89C2
:1004F000FB89808185FD05C0A889B9898C9186FD1D
:100500000FC00FB607FCF5CF808185FFF2CFA88919
:10051000B9898C9185FFEDCFCE010E940902E7CF0A
:10052000DF91CF91089580E090E0892B29F00E941F
:10053000FF0181110C9400000895833081F028F4AC
:10054000813099F08230A1F008958730A9F0883089
:10055000B9F08430D1F4809180008F7D03C0809108
:1005600080008F7780938000089584B58F7702C0D4
:1005700084B58F7D84BD08958091B0008F7703C0CE
:100580008091B0008F7D8093B00008950895CF933F
:10059000DF93EC019C818E81981768F4E881F981E2
:1005A0008F8568270084F185E02D42E0CE01099512
:1005B0008C818F5F8C83DF91CF91089585ED80933F
:1005C000BC008091BC0084FDFCCF1092CD04089546
:1005D00040917904262F30E0240F311D213231055E
:1005E000DCF42091CD042430C9F4FC0180E090E0DB
:1005F000861758F4309179042191DC01A95ABB4F38
:10060000A30FB11D2C930196F3CF80917904680F4D
:100610006093790480E0089581E0089582E0089570
:10062000089581E090E03091BD012091BC01321726
:1006300010F480E090E09195819591090895809162
:10064000BD019091BC01891730F48F5F8093BD018B
:1006500080E090E008958FEF9FEF08958091BC01B6
:1006600090E02091BD01821B91090895CF92DF9205
:10067000EF92FF920F931F93CF93DF937C01262F6E
:10068000972F8A018091CE04882391F0C62FD72F0F
:100690006E01C40ED51ECC15DD0571F06991D70130
:1006A000ED91FC910190F081E02DC7010995F3CF08
:1006B000642F822F0E94E802C801DF91CF911F9121
:1006C0000F91FF90EF90DF90CF900895CF93DF933D
:1006D0001F92CDB7DEB769832091CE042223D1F0DB
:1006E0002091F104203240F021E030E0FC0133831E
:1006F000228380E090E015C08091CF04E82FF0E0E5
:10070000E053FB4F998190838F5F8093CF04809358
:10071000F10405C061E0CE0101960E94E80281E08B
:1007200090E00F90DF91CF910895089580E090E0E0
:1007300008950E945F180F931F93CF93DF93EC01EE
:10074000062F142F8A89813120F4882329F0411142
:1007500003C00E94D20B1A8A8A89811113C0898929
:1007600091E09093CE048093F0041092CF04109205
:10077000F104112311F060E401C060E082EF94E025
:100780000E946603602F82EF94E00E94660312309D
:1007900021F48A898F5F8A8B03C00E94D20B1A8A48
:1007A000DF91CF911F910F9108951F920F920FB675
:1007B0000F9211242F933F934F935F936F937F93E7
:1007C0008F939F93AF93BF93EF93FF9384EF95E045
:1007D0000E940902FF91EF91BF91AF919F918F917C
:1007E0007F916F915F914F913F912F910F900FBE2D
:1007F0000F901F9018951F920F920FB60F92112411
:100800002F938F939F93EF93FF93E0910406F091C2
:1008100005068081E0910A06F0910B0682FD12C068
:10082000908180910D068F5F8F7320910E06821745
:1008300051F0E0910D06F0E0EC50FA4F958F809367
:100840000D0601C08081FF91EF919F918F912F91B3
:100850000F900FBE0F901F901895CF93DF93282F06
:1008600030E0F901E359FD4F8491F901ED53FD4F5B
:10087000D491F901E155FD4FC491CC2391F0811140
:100880000E949D02EC2FF0E0EE0FFF1FEB55FD4F95
:10089000A591B491EC91ED2381E090E021F480E00A
:1008A00002C080E090E0DF91CF9108951F93CF9335
:1008B000DF93282F30E0F901E359FD4F8491F901CE
:1008C000ED53FD4FD491F901E155FD4FC491CC2377
:1008D000C9F0162F81110E949D02EC2FF0E0EE0F5F
:1008E000FF1FE556FD4FA591B4918FB7F8941111F4
:1008F00005C09C91ED2FE095E92302C0EC91ED2B12
:10090000EC938FBFDF91CF911F910895CF93DF9329
:1009100090E0FC01ED53FD4F2491FC01E155FD4FAA
:100920008491882361F190E0880F991FFC01EF56B4
:10093000FD4FC591D491FC01E556FD4FA591B491B1
:10094000611109C09FB7F89488812095822388831C
:10095000EC912E230BC0623061F49FB7F89438817C
:10096000822F809583238883EC912E2B2C939FBF1D
:1009700006C08FB7F894E8812E2B28838FBFDF91B4
:10098000CF9108953FB7F8948091A3049091A40467
:10099000A091A504B091A60426B5A89B05C02F3F41
:1009A00019F00196A11DB11D3FBFBA2FA92F982F95
:1009B0008827820F911DA11DB11DBC01CD0142E010
:1009C000660F771F881F991F4A95D1F708952FB793
:1009D000F89460919F047091A0048091A10490917B
:1009E000A2042FBF0895CF92DF92EF92FF920E9450
:1009F000E7046B017C018091530490915404A09111
:100A00005504B0915604A7019601281B390B4A0BD7
:100A10005B0B243031054105510518F182E00E943D
:100A20002D04892B61F48091C0019091C10101973F
:100A30009093C1018093C0018FEF9FEF0BC0809115
:100A4000C0019091C10101969093C1018093C001B2
:100A500081E090E09093BF018093BE0181E080939C
:100A6000C201C0925304D0925404E0925504F09213
:100A70005604FF90EF90DF90CF9008951F920F9251
:100A80000FB60F9211242F933F938F939F93AF93A1
:100A9000BF9380919F049091A004A091A104B09174
:100AA000A20430919E0423E0230F2D3720F40196F9
:100AB000A11DB11D05C026E8230F0296A11DB11D81
:100AC00020939E0480939F049093A004A093A1047C
:100AD000B093A2048091A3049091A404A091A504D2
:100AE000B091A6040196A11DB11D8093A30490931B
:100AF000A404A093A504B093A604BF91AF919F91C5
:100B00008F913F912F910F900FBE0F901F901895CE
:100B10001F920F920FB60F9211242F933F934F9372
:100B20005F936F937F938F939F93AF93BF93EF9355
:100B3000FF93E0910201F09103010995FF91EF917C
:100B4000BF91AF919F918F917F916F915F914F91E5
:100B50003F912F910F900FBE0F901F9018951F92ED
:100B60000F920FB60F9211242F933F934F935F93E1
:100B70006F937F938F939F93AF93BF93EF93FF9365
:100B8000E0910001F09101010995FF91EF91BF9172
:100B9000AF919F918F917F916F915F914F913F9115
:100BA0002F910F900FBE0F901F901895DC01ED91C3
:100BB000FC910084F185E02D40E00994FC018781DF
:100BC000869586958695681740F465839385690FA9
:100BD0006770606BCF010C94D60508950F931F9337
:100BE000CF93FC0126816217A0F4C62F8C01648389
:100BF0009085C90F6C2F6F70CF010E94D6056C2FA6
:100C000062956F706061C801CF911F910F910C9434
:100C1000D605CF911F910F910895CF92DF92EF9259
:100C2000FF920F931F93CF93DF93EC01F62EC42E08
:100C3000D22E8F81869586958695081710F00FEF36
:100C4000080F1D2D6F2DCE01011788F00E94EE05B3
:100C5000612FCE010E94DE05EF2CCE1430F06F859F
:100C6000CE010E94C702E394F8CF1F5FEBCF0E9432
:100C7000EE056D2DCE01DF91CF911F910F91FF9069
:100C8000EF90DF90CF900C94DE050F93DC0115966A
:100C90002C9115971D96ED91FC911E97309781F040
:100CA0003396E491F0E0379683E0F595E7958A95E1
:100CB000E1F750960C9150970E9FE02D112401C042
:100CC000E0E00FEF020F0E0F16964C911697415071
:100CD00014966C911497CD010E940D060F91089502
:100CE0002F923F924F925F926F927F928F929F923C
:100CF000AF92BF92CF92DF92EF92FF920F931F932A
:100D0000CF93DF93CDB7DEB727970FB6F894DEBF4A
:100D10000FBECDBFFC01A585B685109709F428C18B
:100D20009F838E83FD013296549031967491E72E05
:100D3000F12CF7E0EF0EF11C93E0F594E7949A950F
:100D4000E1F7E982FD01349694913196E4916917B7
:100D500058F0462F50E02E2F30E0F901E90FF11D39
:100D60004E175F070CF442C06D3031F460E08E81A5
:100D70009F810E94EE05FFC06A3009F0F9C060E073
:100D80008E819F810E94EE05EE81FF8180898E9D7C
:100D9000E02C1124878186958695869565816E0D58
:100DA0009E2D981B960F2485222309F4DCC019166A
:100DB0000CF0D9C0EE81FF812385920F9770938745
:100DC0008E198583CF010E944506EE81FF818485BF
:100DD000813009F0D0C06385660F660F660F6F73B0
:100DE00062876064CF010E94D605C5C0AD014A5F2D
:100DF0005F4F691BEE81FF8190898185989F802DCF
:100E000011248C83FD0114913196849190E0912BF3
:100E1000029770F45E9CC0015F9C900D1124689F46
:100E20008001699F100D1124040F151F412C24C04F
:100E3000E72FE77021F088E0482E4E1A01C0412CC0
:100E4000A42FFA0180E090E07E2F7A1B761728F419
:100E50007491870F911D3196F7CFFA01E60FF11DBE
:100E600054908E9D80018F9D100D9E9D100D11241C
:100E7000020F131F040F151FEE81FF81F481FA8307
:100E8000EE81FF81F581FB83852C912CCC24C394CA
:100E9000D12CA12CB12C22242A942C0C8981281627
:100EA00008F060C0312CEE81FF818089381608F08F
:100EB00053C0211002C0332069F0EE81FF8175809C
:100EC00073946A81CF010E94EE05672D8E819F8108
:100ED0000E94DE05612C712C651488F5F301EA0D82
:100EE000FB1DE00FF11F2491442061F0CE14DF04BC
:100EF00049F4E22FF0E0042C02C0F595E7950A943E
:100F0000E2F72E2FEE81FF818089823079F4E22F83
:100F10003110E295EF70F0E0EF57FD4F2491622F12
:100F20008E819F812D830E94C7022D81622F8E8129
:100F30009F810E94C702FFEF6F1A7F0ACDCF712CED
:100F40008C81781639F060E08E819F810E94C70203
:100F50007394F6CF3394A7CFA80CB91CFFEFCF1A28
:100F6000DF0A99CF6B818E819F810E94DE0503C0CD
:100F700080E090E002C081E090E027960FB6F89400
:100F8000DEBF0FBECDBFDF91CF911F910F91FF90BC
:100F9000EF90DF90CF90BF90AF909F908F907F9019
:100FA0006F905F904F903F902F9008951F920F92F7
:100FB0000FB60F9211242F933F934F935F936F932C
:100FC0007F938F939F93AF93BF93EF93FF93809102
:100FD000B900887F803609F49CC068F5883209F42E
:100FE0005BC090F4803109F454C038F4882309F4CC
:100FF000F6C0883009F44DC0F6C0883109F44CC001
:10100000803209F45DC0EFC0803409F468C048F450
:10101000803309F455C0883309F0E5C08093CB04D0
:10102000D8C0803509F44FC0883509F45DC08834D4
:1010300009F0D9C0D6C0883909F4C7C0A8F48837E8
:1010400009F467C038F4883609F463C0803709F4BE
:1010500060C0C9C0883809F4B8C0803909F45FC0DD
:10106000803809F0C0C05BC0803B09F486C038F40A
:10107000803A09F466C0883A09F47FC0B4C0803C65
:1010800009F4A7C0883C09F4A4C0883B09F48AC0CD
:10109000AAC08091A80410C09091CA048091C9048C
:1010A000981770F5E091CA0481E08E0F8093CA040E
:1010B000F0E0E755FB4F80818093BB0085EC86C054
:1010C0008093CB048EC0E091CA0481E08E0F8093A0
:1010D000CA048091BB00F0E0E755FB4F80839091FC
:1010E000CA048091C9046EC0E091CA0481E08E0FE9
:1010F0008093CA048091BB00F0E0E755FB4F8083EA
:101100008091CC0481116DC081E08093A70484EAB2
:1011100061C083E08093CD0410929D04CFCF809175
:101120009D04803208F051C0E0919D0481E08E0F53
:1011300080939D048091BB00F0E0E358FB4F8083D7
:10114000BDCF85EC8093BC001092CD0480919D04AE
:10115000803230F4E0919D04F0E0E358FB4F1082C0
:1011600060919D0470E0E0917B04F0917C048DE738
:1011700094E0099510929D0436C084E08093CD04DC
:1011800010927A0410927904E0917704F091780437
:10119000099580917904811105C081E080937904DB
:1011A00010925704E0917A0481E08E0F80937A04C4
:1011B000F0E0E95AFB4F80818093BB0090917A0464
:1011C00080917904981708F479CF85E88093BC0062
:1011D0000AC085EC8093BC001092CD0404C010922C
:1011E000CB040E94DE02FF91EF91BF91AF919F91DE
:1011F0008F917F916F915F914F913F912F910F90C0
:101200000FBE0F901F901895CF92DF92EF92FF9232
:101210000F931F93CF93DF931F92CDB7DEB79C013F
:10122000220F331F260F371F4AE0429F6001439F62
:10123000D00C1124469F8001479F100D11244EE2CF
:10124000489F9001499F300D1124020F131F04592C
:101250001A4F76018AE0E80EF11CF80161918F01C6
:10126000C60169830E9411166981681719F0C601C9
:101270000E941916FFEFCF1ADF0ACE14DF0469F7B8
:101280000F90DF91CF911F910F91FF90EF90DF9022
:10129000CF900895009769F0FC0101900020E9F7D4
:1012A0003197AF01481B590BBC018EEF94E00C94B1
:1012B000970180E090E008958F929F92AF92BF9245
:1012C0000F931F93CF93DF93CDB7DEB7A1970FB6E0
:1012D000F894DEBF0FBECDBF19A2423008F44AE039
:1012E0008E010F5D1F4F842E912CA12CB12CA501D6
:1012F00094010E943718E62FB901CA010150110963
:10130000EA3014F4E05D01C0E95CD801EC93232BD2
:10131000242B252B61F7C8010E944A09A1960FB61C
:10132000F894DEBF0FBECDBFDF91CF911F910F911B
:10133000BF90AF909F908F900895CF92DF92EF92E1
:10134000FF92CF93DF936B017C01E091FE04F0915B
:10135000FF040190F081E02D6DE28EEF94E009959D
:10136000EC0166277727CB016C197D098E099F094F
:101370004AE00E945C098C0F9D1FDF91CF91FF9086
:10138000EF90DF90CF900895BC01990F880B990BD7
:1013900097FD0C949D094AE00C945C09CF93DF9370
:1013A0000E944A09EC0183E891E00E944A098C0FEF
:1013B0009D1FDF91CF910895CF93DF93BC01990FCB
:1013C000880B990B97FF03C00E949D0903C04AE058
:1013D0000E945C09EC0183E891E00E944A098C0FAD
:1013E0009D1FDF91CF9108950F93CF93DF93CEEFA1
:1013F000D4E01B861A8660E4CE010E94D6050F81D8
:1014000006950695069501504E81415020E060E01A
:10141000CE010E940D06DF91CF910F9108950F9399
:101420001F93CF93DF938C01C0E0D0E0C017D107AA
:1014300069F0FE01EE0FFF1FE250FB4F60E080A954
:101440000E945604FE01E250FB4F13A62196C330C2
:10145000D10561F7DF91CF911F910F910895CF9240
:10146000DF92EF92FF920F931F93CF93DF93EC01E4
:101470008B016A0179016130710569F50E940F0ADB
:10148000FE01EE0FFF1FE25DFA4F61E080810E94D6
:1014900056048091340590913505019741F480916F
:1014A000500590915105C817D90709F4D4C00E947E
:1014B000F40982E080930E05C70101960E94C409D9
:1014C00086E891E00E944A09CE0101960E94C40973
:1014D00088E891E0BEC06230710569F50E940F0A8C
:1014E000FE01EE0FFF1FE25DFA4F61E080810E9476
:1014F00056048091340590913505029741F480910E
:10150000500590915105C817D90709F4A4C00E944D
:10151000F40982E080930E05C70101960E94C40978
:1015200086E891E00E944A09CE0101960E94C40912
:101530008FE891E08EC06330710569F50E940F0A53
:10154000FE01EE0FFF1FE25DFA4F61E080810E9415
:1015500056048091340590913505039741F48091AC
:10156000500590915105C817D90709F474C00E941D
:10157000F40982E080930E05C70101960E94C40918
:1015800086E891E00E944A09CE0101960E94C409B2
:1015900088E991E05EC06430710569F50E940F0A28
:1015A000FE01EE0FFF1FE25DFA4F61E080810E94B5
:1015B00056048091340590913505049741F480914B
:1015C000500590915105C817D90709F444C00E94ED
:1015D000F40982E080930E05C70101960E94C409B8
:1015E00086E891E00E944A09CE0101960E94C40952
:1015F00081EA91E02EC06530710569F50E940F0AFD
:10160000FE01EE0FFF1FE25DFA4F61E080810E9454
:1016100056048091340590913505059739F48091F1
:10162000500590915105C817D907A9F00E94F409F7
:1016300082E080930E05C70101960E94C40986E8E6
:1016400091E00E944A09CE0101960E94C40989EAEC
:1016500091E00E94CE098EEF94E00E94450682E060
:1016600080930E05C6010E94DC09D0935105C093FA
:1016700050051093350500933405DF91CF911F91EC
:101680000F91FF90EF90DF90CF900895E9E6F0E0A2
:101690008081837F8083E99A0895CF93DF930E94AE
:1016A000F409CEEFD4E081E0888B85E891E00E94D8
:1016B000CE0982E0888B81EB91E0DF91CF910C9491
:1016C000CE09EF92FF921F93CF93DF931F92CDB776
:1016D000DEB77C01162F80E8E816F1040CF45BC03D
:1016E000A1EEEA16F10474F58091B5069091B60664
:1016F000DC01ED91FC910190F081E02D6E2D49838C
:1017000009958091B5069091B606DC01ED91FC91AA
:10171000612F6F770190F081E02D0995E894E4F84E
:101720004981B0ECEB16F104B1F18091B5069091CE
:10173000B606DC01ED91FC91642F6F770190F0818A
:10174000E02D22C0C701885F9109089720F5BDEF01
:10175000EB16F1044CF48AEFE816F10454F4A8EF08
:10176000EA16F104C1F405C0C7018E5F9109029722
:1017700090F48091B5069091B606DC01ED91FC9154
:101780000190F081E02D6E2D0F90DF91CF911F9190
:10179000FF90EF9009940F90DF91CF911F91FF90F0
:1017A000EF9008952091F1049091F004213208F017
:1017B0004AC08091CD048111FCCF32E03093CD043A
:1017C00031E03093CC043FEF3093CB041092CA0445
:1017D0002093C904A0EDB4E049EA54E0FA013E2F99
:1017E000341B321718F43D913193F9CF1092A804AD
:1017F0002091A804990F922B9093A8049091A7048C
:10180000913061F41092A7049091A8049093BB00CA
:101810009091BC0093FDF8CF95EC01C095EE9093AC
:10182000BC009091CD049230E1F39091CB049F3FA6
:1018300079F08091CB04803241F08091CB048033E9
:1018400031F084E005C081E003C082E001C083E0A4
:101850001092CF041092F1041092CE040895CF9309
:10186000DF93CDB7DEB72D970FB6F894DEBF0FBE6E
:10187000CDBF789484B5826084BD84B5816084BD19
:1018800085B5826085BD85B5816085BD80916E001E
:10189000816080936E00109281008091810082604F
:1018A000809381008091810081608093810080918C
:1018B00080008160809380008091B100846080937B
:1018C000B1008091B00081608093B00080917A0077
:1018D000846080937A0080917A00826080937A009D
:1018E00080917A00816080937A0080917A0080688C
:1018F00080937A001092C10010926B0510926A05D5
:1019000081E090E0909399058093980582E090E0C3
:101910009093C7058093C60585E090E09093970566
:101920008093960581E190E09093C5058093C4056E
:1019300084E090E09093F3058093F20560E083E00B
:101940000E94860460E082E00E94860483EF94E0B7
:1019500090930301809302010E94460BE091B5062B
:10196000F091B606A089B18922E02C93A485B585B3
:101970001C92A685B7858FE38C93108EA489B589B8
:1019800096E09C93A289B3898C9180618C93A28903
:10199000B3898C9188608C93A289B3898C9180687B
:1019A0008C930288F389E02D80818F7D808381E193
:1019B0008093B7061092B9061092B8061092C0062E
:1019C0001092BF061092BE061092BD064FEF5FEF59
:1019D0005093C2064093C1065093C4064093C30679
:1019E00010924B071092C8061092C7061092C606B6
:1019F0001092C9061092CA068091C5068170826055
:101A000081608093C506E0910406F091050620836D
:101A1000E0910006F09101061082E0910206F0913B
:101A2000030680E1808310920C06E0910806F09195
:101A300009069083E0910606F09107068081806197
:101A40008083E0910606F09107068081886080839C
:101A5000E0910606F0910706808180688083E0911E
:101A60000606F091070680818F7D8083B5E98B2E75
:101A7000B5E09B2E00E010E0BB24B3948AE0D82EA2
:101A80009EE2C92E0E94E704F401359760837183BA
:101A90008283938334961082D401BC928091510446
:101AA0007401BDE0EB1AF108C09EF001C19EF00D7B
:101AB0001124D89EE00DF11D1124E659FA4F6481DE
:101AC000758186819781681B790B072E000C880B26
:101AD000990B0E943E179B01AC0160E070E08CEF17
:101AE00092E40E949416F70160837183828393834A
:101AF0000F5F1F4FFEE28F0E911C0330110511F690
:101B00001092BD011092BC011092CF041092F1040A
:101B10001092CD0481E08093CC041092A70461E080
:101B200082E10E94560461E083E10E9456048091A4
:101B3000B9008E7F8093B9008091B9008D7F80932A
:101B4000B90088E48093B80085E48093BC008CE001
:101B50008093B800109210058CE380930F051092CB
:101B6000020510920305E7E6F2E085919491082FB3
:101B7000E9E6F2E01491EAE6F2E0E491E09304058C
:101B8000EBE6F2E0E491E0930505ECE6F2E0E491A7
:101B9000E09306057C018E2D801B811750F4F70120
:101BA00064918EEF94E00E94D605FFEFEF1AFF0AD2
:101BB000F2CF0E94F409E1E8F0E0F0930C05E09325
:101BC0000B058491E2E8F0E0E491F0E0F82B319726
:101BD00009F40EC681E0809307050E944D0B00E0DA
:101BE00010E0F801E659FA4F62E084A50E948604ED
:101BF000025D1F4F0A381105A1F70CE615E0AA2473
:101C0000BB24A01AB10AC12CD12C3801E12CF12C33
:101C100043012AE0820E911CC3018A0D9B1D0E9484
:101C20001116D3018D933D01A815B905A9F7BAE0A6
:101C3000EB0EF11CE4E1EE16F10451F7FAE1AF1AF4
:101C4000B108025D1F4F24E1C20ED11C3CE3C31654
:101C5000D104D9F684E995E09C838B83ADE1B5E0AE
:101C6000B987A887EEEFF4E0FB87EA8720E835E044
:101C70003D872C87BE83AD83A5E9B5E0BA83A983F0
:101C8000612C712C1AE00EE2862D806480937C001A
:101C900080917A00806480937A0080917A00B82FD6
:101CA000B074BF8386FDF9CFE09078008091790011
:101CB000F12CF82AF092C401E092C3010E94E704DB
:101CC000C0905104D12C96012F5F3F4F129FF0011D
:101CD000139FF00D1124069DA001079D500D1124A6
:101CE000E40FF51FE659FA4F208131811901330FB6
:101CF00044085508EC85FD8580889188A288B388C2
:101D0000820C931CA41CB51C681579058A059B05DB
:101D100008F466C11C9D90011D9D300D1124C90160
:101D2000840F951FFC01E659FA4F868197818E1525
:101D30009F0524F5A981BA818C918823F9F0EB8164
:101D4000FC81808181110BC021E020830E94C204AC
:101D5000AC85BD856D937D938D939C931397EC8596
:101D6000FD85848195818E159F0514F4F582E482AA
:101D7000AC85BD851796FC92EE921697E981FA81A3
:101D80008081882309F4FBC0AB81BC818C918823BE
:101D900009F4F5C00E94C2041C9DF0011D9DF00DC8
:101DA0001124069D9001079D300D1124E20FF31FB1
:101DB000E659FA4F208531854901330FAA08BB083F
:101DC000AC85BD852D913D914D915C91820E931E08
:101DD000A41EB51E86169706A806B90608F0CFC041
:101DE000AC85BD8514966D917C9115978681978100
:101DF000681B790B072E000C880B990B0E943E176D
:101E0000EC85FD8520853185428553850E94CA1762
:101E100020E030E040E85FE30E9428160E940617A9
:101E20007B01603871051CF08FE7E82EF12C1C9DBA
:101E3000C0011D9D900D1124069D9001079D300D40
:101E40001124820F931FFC01E659FA4FC280D38000
:101E500096012B533C4F5901D9018C91882331F0C5
:101E600040E06C2D80E890E00E94610B0E94E70446
:101E7000F601EE0FFF1FEE0FFF1FEB53FE4F6083C7
:101E800071838283938321E0F501208384EF95E0C1
:101E90000E94710280915104069DF001079DF00D92
:101EA0001124189FE00DF11D1124E659FA4F4E2D13
:101EB000628180E990E00E94610BB701FF0C880B02
:101EC000990B0E943E174B015C012AE939E949E967
:101ED0005EE30E94CA1720E030E040E251E40E9435
:101EE00028160E9406171B012C016B01AD81BE81D3
:101EF0001696ED90FC90179761E08E2D0E94860457
:101F00002114310409F4ACC4BFEF2B16310409F4D9
:101F1000A9C4F701FF27E359FD4FE491E33009F429
:101F200081C408F06FC4E13009F065C484B58068ED
:101F300084BD27BC20E030E040E45FE3C501B4018C
:101F40000E94CA1720E030E040E050E40E942816CA
:101F50000E940617AD81BE816D937C930E94E704B9
:101F6000EA85FB85638B748B858B968BA981BA81FF
:101F70001C92EC85FD851582148217821682A98138
:101F8000BA818C9181112CC0EB81FC8180818823E6
:101F900039F180915104069DF001079DF00D112447
:101FA000189FE00DF11D1124E659FA4F8091C301ED
:101FB0009091C40126813781281739078CF00E943F
:101FC000E704AC85BD8550966D937D938D939C936E
:101FD0005397EB81FC811082E1E0A981BA81EC93F7
:101FE000FFEF6F1A7F0A2B813C81225D3F4F3C83BC
:101FF0002B8389819A818E969A838983AD81BE8154
:102000001296BE83AD83EA85FB853496FB87EA870B
:102010002C853D85225D3F4F3D872C8733E063163D
:10202000710409F031CE05EC13E065ECA62E61E0F9
:10203000B62ED8018C918823C9F00E94E704F501DF
:10204000C080D180E280F380F8E7CF0ED11CE11C84
:10205000F11C6C157D058E059F0540F0D8011C9282
:1020600040E06F8180E890E00E94610B0F5F1F4F9E
:10207000BF81BF5FBF83E4E0AE0EB11CB038C9F6CC
:1020800053E0E52EF12C0E94E70400914D041091DD
:102090004E0420914F043091500408571C4E2F4F8E
:1020A0003F4F601771078207930738F08091040152
:1020B00090910501019609F0DAC321E0E21AF108D6
:1020C00011F726E9C22E25E0D22E02E515E0212CDB
:1020D000312C992493943AE0B32E4EE2A42ED601EB
:1020E0008C910E942D047C01F80184819581E81671
:1020F000F90641F00E94E704D8016D937D938D931A
:102100009C9313970E94E704F801408051806280FD
:102110007380DC01CB0184199509A609B709C3971F
:10212000A105B10508F4C6C086819781E816F906B5
:1021300009F4C0C0F782E682E114F10409F0BAC0E4
:1021400080910401909105012816390631F123EFA1
:1021500034E030930301209302010E94460B0E9459
:10216000E70460934D0470934E0480934F04909362
:102170005004309205012092040190925204809103
:102180005104282F30E0A29CF001A39CF00D1124F3
:10219000B89EE00DF11D112484C083EF94E090936C
:1021A0000301809302010E94460B0E94E7046093A2
:1021B0004D0470934E0480934F04909350043092DA
:1021C000050120920401909152049F5F9093520464
:1021D00080915104923099F4282F30E0A29CA00104
:1021E000A39C500D1124B89E400D511D1124FA01DD
:1021F000E659FA4F4681578162E070E058C093304B
:1022000099F4282F30E0A29CA001A39C500D11242A
:10221000B89E400D511D1124FA01E659FA4F448130
:10222000558163E070E043C0943099F4282F30E08A
:10223000A29CA001A39C500D1124B89E400D511DDD
:102240001124FA01E659FA4F4085518564E070E0A7
:102250002EC09530C1F4282F30E0C9010196B89EF8
:10226000A001B99E500D1124A29CC001A39C900D09
:102270001124840F951FFC01E659FA4F40815181CA
:1022800065E070E014C090925204282F30E0A29CC8
:10229000A001A39C500D1124B89E400D511D112486
:1022A000FA01E659FA4F4281538161E070E0C101C1
:1022B0000E942F0AD8011596FC92EE921497BFEF58
:1022C0002B1A3B0AEEE2CE0ED11C085F1F4FF3E043
:1022D0002F16310409F003CF8DE00E942D047C01FC
:1022E0008091490490914A04E816F90651F00E9441
:1022F000E7046093450470934604809347049093E9
:1023000048040E94E704009145041091460420917E
:10231000470430914804DC01CB01801B910BA20BD8
:10232000B30BC397A105B10508F448C080914B04D5
:1023300090914C04E816F90609F440C0F0924C0460
:10234000E0924B0421E0E216F104C1F580915104C2
:102350008F5F823018F48093510402C010925104B0
:1023600083E090E0AFEFBFEFB0930501A0930401CD
:10237000E998E6ECF2E0F0930301E09302010197A3
:1023800089F7B0933505A0933405B0935105A09318
:1023900050058FEF9FEF0E940F0A0091510410E04B
:1023A0000F5F1F4F0E94F40982E080930E058CE5B9
:1023B00091E00E944A09C8010E94DC09F0924A0497
:1023C000E0924904A0900401B0900501FFEFAF1620
:1023D000BF0609F47BC080915204833009F4C7C062
:1023E00030F4813059F0823009F475C06FC0843008
:1023F00009F42AC1853009F474C168C08091C20112
:10240000882309F463C02091BE013091BF018091FF
:1024100051041216130694F49EE29A9DF0019B9DBE
:10242000F00D11242AE0829FE00DF11D1124E659E0
:10243000FA4F228133812F5F3F4F17C02091BE0199
:102440003091BF0137FF13C09EE29A9DF0019B9D22
:10245000F00D11243AE0839FE00DF11D1124E6599F
:10246000FA4F228133812150310933832283282F6F
:1024700030E09EE29A9DF0019B9DF00D11249AE0C0
:10248000899FE00DF11D1124E659FA4F42815381D5
:1024900061E070E0C5010E942F0A6091510470E074
:1024A00080910401909105010E9404090E94E704B3
:1024B00060934D0470934E0480934F0490935004A6
:1024C0001092C2011092C1011092C00191E1A92E97
:1024D00095E0B92E61C18091C2018823B9F32091A2
:1024E000BE013091BF01809151041216130694F47D
:1024F0009EE29A9DF0019B9DF00D1124AAE08A9F17
:10250000E00DF11D1124E659FA4F268137812F5F26
:102510003F4F17C02091BE013091BF0137FF13C05C
:102520009EE29A9DF0019B9DF00D1124BAE08B9FD5
:10253000E00DF11D1124E659FA4F26813781215013
:10254000310937832683282F30E09EE29A9DF001DF
:102550009B9DF00D11249AE0899FE00DF11D11243F
:10256000E659FA4F4681578162E070E093CF80913F
:10257000C201882309F4AACF2091BE013091BF0186
:10258000809151041216130694F49EE29A9DF00174
:102590009B9DF00D1124AAE08A9FE00DF11D1124EE
:1025A000E659FA4F24813581265F3F4F17C02091AD
:1025B000BE013091BF0137FF13C09EE29A9DF0012A
:1025C0009B9DF00D1124BAE08B9FE00DF11D1124AD
:1025D000E659FA4F248135812A5031093583248305
:1025E0009EE29A9DF0019B9DF00D11249F012659BA
:1025F0003A4F6901E82EF12C3AE0839FE00DF11D7E
:102600001124E659FA4F0481158186819781B8011A
:10261000681B790B072E000C880B990B0E943E1744
:102620009B01AC0160E070E08CEF92E40E94941694
:10263000D6015E966D937D938D939C9391979701B0
:10264000A80163E070E026CF8091C201882309F4DD
:102650003DCF2091BE013091BF01809151041216EF
:10266000130694F49EE29A9DF0019B9DF00D1124B7
:10267000BAE08B9FE00DF11D1124E659FA4F208539
:1026800031852E5C3F4F17C02091BE013091BF01B4
:1026900037FF13C09EE29A9DF0019B9DF00D11241F
:1026A0002AE0829FE00DF11D1124E659FA4F2085A2
:1026B00031852253310931872087282F30E09EE26F
:1026C0009A9DF0019B9DF00D11249AE0899FE00DE9
:1026D000F11D1124E659FA4F4085518564E070E000
:1026E000D9CE8091C201882309F4F0CE8091BE0139
:1026F0009091BF012091510418161906BCF4822F45
:1027000090E001963AE0389FF001399FF00D1124D6
:102710003EE23A9DC0013B9D900D1124E80FF91F48
:10272000E659FA4F8081918101961CC08091BE01CB
:102730009091BF0197FF18C0822F90E001963AE078
:10274000389FF001399FF00D11243EE23A9DC001FF
:102750003B9D900D1124E80FF91FE659FA4F808137
:10276000918101979183808330E0C90101964AE00D
:10277000489FF001499FF00D11244EE24A9DC0018F
:102780004B9D900D1124E80FF91FE659FA4F408137
:10279000518165E070E07ECE0E94E704D5010D9185
:1027A0001D912D913D915D01E885F98541915191F2
:1027B000F987E8876A01550FEE08FF080C0D1D1D0B
:1027C0002E1D3F1D601771078207930748F0148183
:1027D00061E0812F0E94860460E0812F0E945604F0
:1027E0002885398523523540B9F60E94930232CAB2
:1027F00010920705F2C9E23079F584B5806284BD94
:1028000028BC98CBE730C1F0E830F1F0E43021F596
:102810008091800080628093800030928B002092B3
:102820008A0088CB809180008068809380003092FD
:102830008900209288007ECB8091B00080688093D0
:10284000B0002092B30076CB8091B000806280937C
:10285000B0002092B4006ECBE0E8CE16D10414F4A0
:1028600060E001C061E08E2D0E94560463CBEFEF63
:10287000FFEFF0930501E0930401E99826EC32E0C4
:102880003093030120930201F0933505E093340562
:10289000F0935105E09350058FEF9FEF0E940F0AD0
:1028A0000E944D0B0ACCCF92DF92EF92FF920F93D2
:1028B0001F93CF93DF931092F7051092F60588EEE1
:1028C00093E0A0E0B0E08093F8059093F905A09321
:1028D000FA05B093FB052EE231E03093F505209325
:1028E000F40525EC30E0309301062093000624EC3B
:1028F00030E0309303062093020620EC30E0309362
:1029000005062093040621EC30E03093070620935F
:10291000060622EC30E0309309062093080626ECE8
:1029200030E030930B0620930A0610920D061092A9
:102930000E0610920F06109210061092F5041092D7
:10294000F4048093F6049093F704A093F804B093F2
:10295000F90480E491E09093F3048093F20484EF0F
:1029600095E09093B6068093B5061092B706109244
:10297000B8061092B9061092BE061092BD061092CB
:10298000C0061092BF068FEF9FEF9093C206809310
:10299000C1069093C4068093C30683E08093C50666
:1029A0001092C6061092C8061092C7061092C90669
:1029B0001092CA0610924B0780E8EBECF6E0DF01BC
:1029C0001D928A95E9F71092920610929106109244
:1029D0009406109293061092960610929506109205
:1029E00098061092970610929A06109299061092E5
:1029F0009C0610929B0610929E0610929D061092C5
:102A0000A00610929F061092A2061092A1061092A4
:102A1000A4061092A3061092A6061092A506109284
:102A2000A8061092A7061092AA061092A906109264
:102A3000AC061092AB061092AE061092AD06109244
:102A4000B0061092AF061092B2061092B106109224
:102A5000B4061092B306EAE6F5E0A5E9B5E084E233
:102A6000C82ED12C6EEF73E04EE650E020EA3FE036
:102A700086E190E011E011821082D382C2827583D8
:102A80006483578346833187208793878287D586DF
:102A9000C48677876687518B408B338B228B958BCF
:102AA000848B168A178A108E118E138E128E158EB5
:102AB000148E168E178E10A211A212A213A214A2A7
:102AC00015A216A217A210A611A67D01C1E0EC1A4C
:102AD000F108E70118821C9312961C921E9211971E
:102AE000BE969E96D5E0E43FFD0729F6E2E5F5E0C7
:102AF000108211821282138215821482178216822A
:102B0000389605E0EA36F00799F710920105109221
:102B1000000510920A0510920C0510920B051092F8
:102B20000D0581E080930E0582E591E09093FF040E
:102B30008093FE0486E0EDE1F5E0DF01C82F1D92F1
:102B4000CA95E9F7E6E0F1E0A3E2B5E0982F01903D
:102B50000D929A95E1F71092290510922A0510928C
:102B60002B0510922D0510922C05ECE0F1E0AEE261
:102B7000B5E001900D928A95E1F71092350510921B
:102B80003405109237051092360588E1E2E1F1E054
:102B9000A8E3B5E001900D928A95E1F78FEF9FEFE2
:102BA00090935105809350050E94E70460931105AE
:102BB0007093120580931305909314050E94E70407
:102BC000609315057093160580931705909318056B
:102BD0000E94E7046093190570931A0580931B0502
:102BE00090931C05CEE2D5E08881229661E00E9498
:102BF000860405E0C433D007B9F760E083E00E94A3
:102C0000860460E082E00E94860460E08DE0DF914F
:102C1000CF911F910F91FF90EF90DF90CF900C9488
:102C20008604F999FECF92BD81BDF89A992780B5A7
:102C30000895262FF999FECF1FBA92BD81BD20BD00
:102C40000FB6F894FA9AF99A0FBE01960895505863
:102C5000BB27AA270E943F160C9490170E94821748
:102C600038F00E94891720F039F49F3F19F426F4B8
:102C70000C947F170EF4E095E7FB0C947917E92F7D
:102C80000E94A11758F3BA176207730784079507C4
:102C900020F079F4A6F50C94C3170EF4E0950B2EF2
:102CA000BA2FA02D0B01B90190010C01CA01A0019E
:102CB0001124FF27591B99F0593F50F4503E68F1F9
:102CC0001A16F040A22F232F342F4427585FF3CF3A
:102CD000469537952795A795F0405395C9F77EF40B
:102CE0001F16BA0B620B730B840BBAF09150A1F054
:102CF000FF0FBB1F661F771F881FC2F70EC0BA0FDA
:102D0000621F731F841F48F4879577956795B79561
:102D1000F7959E3F08F0B0CF9395880F08F099275C
:102D2000EE0F9795879508950E94A8160C9490171A
:102D30000E94891758F00E94821740F029F45F3FE3
:102D400029F00C94791751110C94C4170C947F1727
:102D50000E94A11768F39923B1F3552391F3951BB2
:102D6000550BBB27AA2762177307840738F09F5FAC
:102D70005F4F220F331F441FAA1FA9F335D00E2E19
:102D80003AF0E0E832D091505040E695001CCAF786
:102D90002BD0FE2F29D0660F771F881FBB1F261749
:102DA00037074807AB07B0E809F0BB0B802DBF0120
:102DB000FF2793585F4F3AF09E3F510578F00C94EF
:102DC00079170C94C4175F3FE4F3983ED4F38695CB
:102DD00077956795B795F7959F5FC9F7880F911D10
:102DE0009695879597F90895E1E0660F771F881FFC
:102DF000BB1F621773078407BA0720F0621B730BAF
:102E0000840BBA0BEE1F88F7E09508950E940D170A
:102E10006894B1110C94C41708950E94A91788F002
:102E20009F5798F0B92F9927B751B0F0E1F0660F8E
:102E3000771F881F991F1AF0BA95C9F714C0B130CF
:102E400091F00E94C317B1E008950C94C317672F47
:102E5000782F8827B85F39F0B93FCCF386957795FE
:102E60006795B395D9F73EF49095809570956195E7
:102E70007F4F8F4F9F4F0895E89409C097FB3EF412
:102E800090958095709561957F4F8F4F9F4F9923B7
:102E9000A9F0F92F96E9BB279395F6958795779535
:102EA0006795B795F111F8CFFAF4BB0F11F460FFF5
:102EB0001BC06F5F7F4F8F4F9F4F16C0882311F04D
:102EC00096E911C0772321F09EE8872F762F05C061
:102ED000662371F096E8862F70E060E02AF09A95FC
:102EE000660F771F881FDAF7880F9695879597F9F1
:102EF000089597F99F6780E870E060E008959FEF7C
:102F000080EC089500240A94161617061806090680
:102F1000089500240A94121613061406050608954F
:102F2000092E0394000C11F4882352F0BB0F40F4D7
:102F3000BF2B11F460FF04C06F5F7F4F8F4F9F4F17
:102F4000089557FD9058440F551F59F05F3F71F099
:102F50004795880F97FB991F61F09F3F79F0879500
:102F60000895121613061406551FF2CF4695F1DF89
:102F700008C0161617061806991FF1CF8695710519
:102F8000610508940895E894BB2766277727CB014D
:102F900097F908950E94DD170C9490170E948217EC
:102FA00038F00E94891720F0952311F00C947917BE
:102FB0000C947F1711240C94C4170E94A11770F36E
:102FC000959FC1F3950F50E0551F629FF001729FCE
:102FD000BB27F00DB11D639FAA27F00DB11DAA1FDD
:102FE000649F6627B00DA11D661F829F2227B00D2A
:102FF000A11D621F739FB00DA11D621F839FA00DB5
:10300000611D221F749F3327A00D611D231F849F04
:10301000600D211D822F762F6A2F11249F5750405B
:103020009AF0F1F088234AF0EE0FFF1FBB1F661FD6
:10303000771F881F91505040A9F79E3F510580F09F
:103040000C9479170C94C4175F3FE4F3983ED4F3C3
:10305000869577956795B795F795E7959F5FC1F743
:10306000FE2B880F911D9695879597F90895A1E2FB
:103070001A2EAA1BBB1BFD010DC0AA1FBB1FEE1FF2
:10308000FF1FA217B307E407F50720F0A21BB30B3D
:10309000E40BF50B661F771F881F991F1A9469F7B9
:1030A00060957095809590959B01AC01BD01CF0115
:1030B0000895EE0FFF1F0590F491E02D099481E033
:0C30C00090E0F8940C946418F894FFCF92
:1030CC00C602C602FFFF0A000B0009000700080039
:1030DC000600660168016B016D01700172017401DB
:1030EC00770179017C017E018101000000002A0238
:1030FC009701C2017102F301D101E501000000004A
:10310C0066033603960310032E031F0311030000FE
:10311C00000070069701960395039B0350726F672E
:10312C0072616D2D3E004300432300440044230094
:10313C004500460046230047004723004100412339
:10314C000042000D0A003A002D4E6F74652D002DC3
:10315C005468726573682D002D53656E7369742DF8
:10316C00002D52454144752D002D446562756E2D20
:0C317C0000486F6C61204A6F73652100F1
:00000001FF
